:0A0000000C947A010C9400000C949B
:10000A0000000C9400000C9400000C9400000C9466
:10001A0000000C9400000C9400000C9400000C9456
:10002A0044020C9400000C9400000C94AA010C9455
:10003A0000000C94F8010C9400000C9400000C943D
:10004A0000000C9400000C9400001027E8036400E0
:10005A000A00010000100001100001000000000069
:10006A0000000000000000003F0006005B004F0097
:10007A0066006D007D0007007F006F000000000031
:10008A0000000000000000000000000074656D70B0
:10009A007261747572652069733A2025640044613F
:1000AA0074653A00796561723D2564006D6F6E74FE
:1000BA00683D2564006461793D25640054696D6575
:1000CA003A00686F75723D2564006D696E757465D6
:1000DA003D2564007365636F6E643D256400746F2B
:1000EA0020656E746572206D6F746F72732720734A
:1000FA00657474696E677320707265737320760015
:10010A00746F20656E7465722074696D65207365FD
:10011A007474696E677320707265737320740074E7
:10012A006F20656E74657220377365676D656E74CE
:10013A007327732073657474696E677320707265B0
:10014A0073732067006D6F746F7227732073657401
:10015A0074696E67733A00736574206D6F746F7299
:10016A00732076656C6F63697479206F7220636F90
:10017A006E74726F6C2069742062792074656D7078
:10018A007261747572653F207072657373206120A5
:10019A006F7220620076656C6F636974793A0074D5
:1001AA00656D706572617475726520636F6E7472C5
:1001BA006F6C206F6B0074696D6520736574746968
:1001CA006E6773002020796561723A0020204D4FD6
:1001DA004E54483A0020206461793A002020686F22
:1001EA0075723A0020206D696E7574653A00202098
:1001FA007365636F6E643A00746F2073686F77205B
:10020A007468652074696D652C6461746520616E1B
:10021A00642074656D7072617475726520707265A0
:10022A007373207300377365676D656E7427732067
:10023A0073657474696E67733A00576F756C6420DE
:10024A00796F75206C696B6520746F2073686F779E
:10025A0020616E20617262697472617279206E75B2
:10026A006D626572206F72207468652073656E73A3
:10027A006F72732074656D70657261747572652032
:10028A006F6E2037207365676D656E74203F20702E
:10029A00726573732061206F72206200656E7465E7
:1002AA007220746865206E756D6265720073656E82
:1002BA00736F722074656D706572617475726520F2
:1002CA006F6B000001002D4E414E00494E46000062
:1002DA000100020066000A000400680013006202BE
:1002EA00720001008F02CE020000F894EE27ECBBE8
:1002FA00F1E0FBBFEBBFE5BFF8E1F1BDE1BD8DE089
:10030A00A2E0BB27ED938A95E9F780E098E0A0E6A2
:10031A00ED930197E9F7EAEDF2E08591959100975F
:10032A0061F0A591B59105901590BF01F001059076
:10033A000D920197E1F7FB01F0CFEFE5EDBFE8E0A1
:10034A00EEBFC0E6D2E00C94FA02AA93EA93FA93BB
:10035A00EFB7EA931A930A931BB10CB10093760292
:10036A00E12FEC71E9F4E0918102EF5FE093810201
:10037A00E150F0E0E758FD4F0083A0918102A830D8
:10038A0019F4E0E0E0938102A0918302AF5FA093A9
:10039A008302A83029F4E0E0E0938302689420F80D
:1003AA00099119913EC01A93E0918302E030E1F37A
:1003BA00E0918202EF5FE0938202E150F0E0E758B9
:1003CA00FD4F1081A0918202A83019F4E0E0E09379
:1003DA008202F894E0918302E150E09383027894D8
:1003EA00E12F19910895AA93EA93FA93EFB7EA9342
:1003FA00E0918E02E030A9F0E150E0938E02E091A4
:10040A008D02EF5FE0938D02E150F0E0EC57FD4F73
:10041A00E081ECB9A0918D02A83019F4E0E0E093F4
:10042A008D02E991EFBFF991E991A9911895AA93E3
:10043A00A0918E02A830E1F3F894E0918E02E030A8
:10044A0011F45D9918C0E0918C02EF5FE0938C0281
:10045A00E150F0E0EC57FD4FA881A083A0918C02F7
:10046A00A83019F4E0E0E0938C02E0918E02EF5F8D
:10047A00E0938E0202C0E881ECB97894B4C00A9283
:10048A001A92FA926A937A938A939A93AA93BA934C
:10049A00EA93FA93EFB7EA93E0917802EF5FE09379
:1004AA007802A0917802A43009F082C0E0E0E2BFAD
:1004BA00A0E6B2E0ED91FD913196FE93EE93E0E075
:1004CA00E0937802A0917602A33709F071C00E94E6
:1004DA007706A0916002B0916102DC9741F4E0E0F6
:1004EA00E0936002E0936102F60131966F01ECE35A
:1004FA00F0E0EC15FD0529F4CC24DD24F501319654
:10050A005F01E8E1F0E0EA15FB0529F4AA24BB241F
:10051A00F40131964F01EFE1F0E0E815F90529F40D
:10052A0088249924F30131963F01ECE0F0E0E615C6
:10053A00F70529F466247724F20131962F01E6E9BA
:10054A00F0E0FA93EA93E09177020E947C060E9417
:10055A008806A8EAB0E00E94E104EEEAF0E00E9410
:10056A008E06AFE264DFE6EBF0E00E949A06AFE2A5
:10057A005EDFEFEBF0E00E94A606ADE058DFA6ECE6
:10058A00B0E00E94E104ECECF0E00E94B206AAE3BB
:10059A004EDFE4EDF0E00E94BE06AAE348DFEEED8E
:1005AA00F0E00E94CA060E948806E8E6E093760216
:1005BA00E991EFBFF991E991B991A991999189913D
:1005CA0079916991F990199009901895AA93E881FF
:1005DA00E06CE7B983E08A95F1F7369A349BFECF4F
:1005EA00349AE4B1F5B121960895649780E1A4E0C4
:1005FA00B0E0E6E8F0E00E94F60820E030E040E0F3
:10060A0050E0E0E0EBBBEABBEFEFE8BBE7BBE0E0C2
:10061A00E5BBEFEFE4BBE0E0E2BBE0E2E1BBE5E033
:10062A00E3BFE0E0E2BFE1EDECBFE2E8EFBDEDE100
:10063A00EEBDE0E0EDBDECBDE7BDEAE5E6BDE0E01C
:10064A00EBBDEABDE9BDE8BDE2E0E9BFE0E0EBB938
:10065A00E8EDEAB9E6E8E0BDE0E0E0BDECE0E9B9E2
:10066A00E0ECE7B9E1E8E6B97894A0E0AFDFFF276C
:10067A00662777270E94BE07DF01CB01E0E0F0E0A2
:10068A0060E870E40E943A08EA87FB876C877D87F6
:10069A00A0E09CDFF0E0DF01E4E0F0E00E94BA08AD
:1006AA00E0937702022E032A09F4EABDEE81FF8164
:1006BA00309711F40E94D906D8010E94E706EE8706
:1006CA00FF87D801EAE0F0E00E94BA08DF010E9441
:1006DA00E706E88BF98BD801E4E6F0E00E94BA0855
:1006EA00DF010E94E706EA8BFB8BE1E0EB8340E047
:1006FA0050E04330E0E05E0734F5EB81E095E8BB7B
:10070A00FA01DE011E96EE0FFF1FAE0FBF1F0E94F9
:10071A00DB08A2E6B2E0EE0FFF1FAE0FBF1FEC919F
:10072A00E5BBE1E0F0E0E417F50719F4E5B3E058BA
:10073A00E5BBEB81EE0FEB83A5E0B0E00E944E072C
:10074A004F5F5F4FD6CFEC81FD81309799F4A8EEC9
:10075A00B0E00E94EC06AAE0B1E00E94EC06A9E231
:10076A00B1E00E94E1040E948806EC81FD81319685
:10077A00EC83FD83A0917602A637A9F50E9477063D
:10078A00AFE4B1E00E94EC06A1E6B1E00E94EC06FB
:10079A000E947706A0917602A136B1F4AFE9B1E0E2
:1007AA000E94F106E981AAE0EA02F001A881EA0FB3
:1007BA00EA83E5EAF0E0FA93EA93EC810E947C0688
:1007CA00E0E0EBBDEA81EABDA0917602A23649F4E7
:1007DA00E0E0EBBDE0917702EABDA9EAB1E00E9450
:1007EA00EC062F5F3F4FA0917602A43709F0A3C011
:1007FA00DADDA0ECB1E00E94E10444245524AEEC19
:10080A00B1E00E94E104E0E0E887E987A885B985BC
:10081A001497ACF4C8DDE983E053E983F201AAE056
:10082A00B0E00E94A208DF01E981F0E0EA0FFB1FB5
:10083A002F01E885F9853196E887F987E7CFE5EA58
:10084A00F0E00E948E06A6EDB1E00E94F1060E9439
:10085A000007ECE0F0E0E615F7053CF4A6EDB1E0A0
:10086A000E94F1060E940007F4CFAFEDB1E00E94AA
:10087A00F1060E940D07EFE1F0E0E815F9053CF4F6
:10088A00AFEDB1E00E94F1060E940D07F4CFE5EA50
:10089A00F0E00E94A606A6EEB1E00E94F1060E94D0
:1008AA0018075F01E8E1F0E0EA15FB052CF4A6EE73
:1008BA00B1E00E94F106F6CFE5EAF0E00E94B20646
:1008CA00AEEEB1E00E94F1060E9418076F01E5EA58
:1008DA00F0E00E94BE06ECE3F0E0EC15FD0564F4DE
:1008EA00AEEEB1E00E94F1060E9418076F01E5EA38
:1008FA00F0E00E94BE06EFCFA8EFB1E00E94F10639
:10090A000E9418070E942207A0916002B09161021A
:10091A00DD974CF0A8EFB1E00E94F1060E9418079B
:10092A000E942207F1CF0E948806A2E0B2E00E944C
:10093A00E1040E948806A0917602A736D9F50E94A2
:10094A007706AFE2B2E00E94EC06A4E4B2E00E94AD
:10095A00EC060E947706A0917602A136E1F4A6EA97
:10096A00B2E00E94F1060E9418078F01E5EAF0E062
:10097A00FA93EA93F8010E9495080E94E30884E03A
:10098A000E9439062696ADE052DDF801AAE0B0E0F1
:10099A000E94A2088F01A0917602A23631F40E9429
:1009AA00D906A7EBB2E00E94EC06EE81FF813196F0
:1009BA00EE83FF835ACEFFCFBA93AA931A93E981A3
:1009CA00FA813196E983FA833197E4911E2FE03058
:1009DA0021F0A12F0E941C02F2CFAAE00E941C0261
:1009EA0018810CC0BA93AA93AA810E941C02A881FA
:1009FA00B981ED91FD913196FE93EE932396089578
:100A0A00BA93AA9326970E94E80810E0AC85BD85A0
:100A1A00E0E0F0E0ED93FC93EA89FB893196EA8BFA
:100A2A00FB8B3197E4912E2FE03009F415C1E12FA9
:100A3A00E03039F4253211F411E002C00E9429078E
:100A4A000AC1E130A9F4253219F40E94290702C12A
:100A5A0012E040E000E02D3211F401E0FCC02B323C
:100A6A0011F44BE2F8C0203211F440E2F4C002C0A3
:100A7A00E23039F450E013E0203311F40068EBC09F
:100A8A0003C0E33009F0E7C0203310F02A3308F03E
:100A9A0007C0AAE05A9F502DE22FE0535E0FDBC039
:100AAA00E22FE33649F40E943007E889F989A481E4
:100ABA00AA930E943607CEC0E33741F40E9430075A
:100ACA000E943C070E945E061E2F0AC0E03761F4AE
:100ADA000E9430070E943C070E946A061E2F086087
:100AEA0002600F7730E034C0E43611F0E93611F4D1
:100AFA00046002C0E53731F4E4E5F0E0EE83FF83F9
:100B0A0015E00CC0E83511F4086003C0E83709F0B5
:100B1A00A1C0EEE5F0E0EE83FF8314E002FF14C00B
:100B2A000E9430070E944607AB85AA233AF4EA8559
:100B3A00FB850E948308EA87FB874DE2403011F06B
:100B4A001F5F01C00B7F04C00E9430070E94460746
:100B5A0000FD11C0151778F407FF08C002FF04C092
:100B6A000B7F242F115001C020E301C020E20E9414
:100B7A0029075150EFCF312F01FF17C03030A1F0B4
:100B8A0003FF06C0EE81FF812591EE83FF8305C036
:100B9A00AE81BF812D91AE83BF830E942907503059
:100BAA0009F051503150EACF4BC020E3EE81FF816A
:100BBA000E94DF08E887F987EE81FF813296EE838B
:100BCA00FF83E885F985AA85BB85AE17BF0750F074
:100BDA002F5FA885B985EA85FB85EA1BFB0BEA87A7
:100BEA00FB87EFCF2A3328F003FF02C0295F01C039
:100BFA00295D04FD1AC0213320F4A885B98511970F
:100C0A0009F409C0531710F000FF01C013C020E215
:100C1A0007FF0BC020E3006102FF07C00B7F4A9366
:100C2A000E943607503009F051500E94290750306F
:100C3A0009F051503150A885B985129708F0B5CFFF
:100C4A0000FF08C0503031F05150E0E2EA930E94B0
:100C5A003607F8CF10E0E0CEAC85BD850E94DB08F0
:100C6A000E94EF0864960895FF92F82E26971A9329
:100C7A000A93DE0114960E947F088D01E0E0EC835E
:100C8A00ED83EE83EF83DE0118960E947F080E94AF
:100C9A00DB08FA93EA931A930A93E7EFF4E0FA93DC
:100CAA00EA93DE011896ACDE198108812896FF9036
:100CBA000895BA93AA93A991B991EE27FF276D9146
:100CCA00662311F03196FBCF0895BA93AA93AA2707
:100CDA00BB27E991F9910590002011F01196FBCFFD
:100CEA00FD0108950E94D801E09376020895FF2736
:100CFA00662777270E94E30884E00E943906269631
:100D0A00ADE00C941C02ADE00E941C02ADE00C9414
:100D1A001C02FA93EA93F2010E9495080E94E308E2
:100D2A0084E00E94390626960895FA93EA93F3011D
:100D3A000E9495080E94E30884E00E9439062696DC
:100D4A000895FA93EA93F4010E9495080E94E30831
:100D5A0084E00E94390626960895FA93EA93F501EB
:100D6A000E9495080E94E30884E00E9439062696AC
:100D7A000895FA93EA93F6010E9495080E94E308FF
:100D8A0084E00E94390626960895FA93EA93E09140
:100D9A006002F09161020E9495080E94E30884E0D3
:100DAA000E94390626960895AA85BB858C859D855D
:100DBA00E0E0F0E060E271E40E94EC070E9487073D
:100DCA008F010895EAE0F0E00E94BF0808950E94AA
:100DDA00E104ADE00C941C020E94E1040E94D801D7
:100DEA00E9830E94D801E883E981E053E983E88135
:100DFA00E053E8830895A981EAE0EA9FF001DF0160
:100E0A00E881F0E0EA0FFB1F3F01E5EAF0E08DCF51
:100E1A00A981EAE0EA9FF001DF01E881F0E0EA0F48
:100E2A00FB1F4F010895A981EAE0EA9FF001DF0163
:100E3A00E881F0E0EA0FFB1F0895E0936002F09367
:100E4A006102E5EAF0E0A1CF2A93AD85BE85EF8580
:100E5A00F88909950895E889F9893497E88BF98B17
:100E6A000895AD85BE85EF85F88909950895A88905
:100E7A00B98914960E94DB08EE83FF83AE81BF8195
:100E8A000895A889B98914960E94DB08EA87FB8726
:100E9A000895109639F08AEF90E00197F1F7A89536
:100EAA001197C9F70895552342F4503811F4E0FF19
:100EBA0004C03196691F791F6BF050E8572711F467
:100ECA005F9373C05F3F31F0660F000C57956795CB
:100EDA00752F08955F9300200AF073C06CC050E824
:100EEA00192E1522880F991F9527550F879550E8B7
:100EFA00072E0522660F771F7527550F67950895E8
:100F0A00689401C0E8945F93F2DF703818F07F3F6D
:100F1A0008F44BC056E1571BAAF4519558300EF409
:100F2A00593030F0EFEFFFEF6FEF7FE777F91AC034
:100F3A0077275523B9F0EE0FFF1F661F771F5A95C3
:100F4A00D1F710C07727583028F0EF2FF62F672FE8
:100F5A005850F9CF552331F076956795F795E7956F
:100F6A005A95D1F700200AF4CDD05F91089568947C
:100F7A0001C0E894309760407040B1F0002426F038
:100F8A00772312F40094BED0172E7EE1112032F09E
:100F9A007A95EE0FFF1F661F111CF9CFEF2FF62F60
:100FAA00612D5F938ADF5F910895EE27FF276627F9
:100FBA0077275F910895EFEFFFEF6FE77FEF5F917C
:100FCA000895EFEFFFEF6FE77FE75F9108955F9373
:100FDA0086DF703851F3903841F301240894791F61
:100FEA0023F41CF300203AF3ECCF0F921F932F93B4
:100FFA003F934F93112722279927689FA0018F9F1C
:10100A00302D410D591F6B9F300D411D591F8E9F69
:10101A0027D0BF9F25D06A9F23D0BE9F1DD0AF9FE8
:10102A001BD0AE9F110D291F391F491F591FE32FCE
:10103A00F42F652F522F4F913F912F911F910F90AF
:10104A0066232AF0550FEE1FFF1F661F02C0739515
:10105A004BF229DF5F910895100D211D391F02C03F
:10106A00200D311D491F591F08955F9338DF7038CD
:10107A0021F411200AF49FCFA4CF903809F495CF18
:10108A0001240894970B1BF4D4F30020F3CF792F93
:10109A001F932F933F934F9311241127222733270E
:1010AA004427552790E2AE17BF078607410730F05D
:1010BA00AE1BBF0B860B410B089401C08894551FC9
:1010CA00221F331F111CAA1FBB1F881F441F9A957A
:1010DA0051F7F901612D4F913F912F911F9166238D
:1010EA0032F0550FEE1FFF1F661F7A9543F2DBDEC3
:1010FA005F9108950024AF0DB01D0895F195E19513
:10110A00F0400895F09560957095E195FF4F6F4F07
:10111A007F4F0895FE2FFF0FFF0B6F2F7F2F08952C
:10112A006F2F660F660B762F0895FA9FF02DEB9FAF
:10113A00F00DEA9FE02DF10D08952AD0F6DF0EF4A6
:10114A00DDDF08950024112490E1AA0FBB1F001CC3
:10115A00111C0E1A1F0A18F40E0E1F1E01C0A160E0
:10116A009A9599F7FD01D001089512D0EBDF0EF49C
:10117A00C5DF0895E894B7FF04C0A095B09511960D
:10118A006894F7FDBBDFDEDFFD010EF4B7DF0895DB
:10119A00E894F7FF02C0B2DF6894B7FF06C0A095D3
:1011AA00B095119600F8039400FA0895ED91FC9118
:1011BA00119708950590F491E02D08957A936A9312
:1011CA00FA93EA9308955A934A933A932A931A936D
:1011DA000A9308955D814C813B812A811981088196
:1011EA000895AC0FBD1F05900D928A95E1F70895F9
:00000001FF
